{
  "_format": "hh-sol-artifact-1",
  "contractName": "TokenFarming",
  "sourceName": "contracts/TokenFarming.sol",
  "abi": [
    {
      "inputs": [
        {
          "internalType": "contract RewardTokenOne",
          "name": "rewardTokenOne",
          "type": "address"
        }
      ],
      "stateMutability": "nonpayable",
      "type": "constructor"
    },
    {
      "anonymous": false,
      "inputs": [
        {
          "indexed": true,
          "internalType": "address",
          "name": "sender",
          "type": "address"
        },
        {
          "indexed": false,
          "internalType": "uint256",
          "name": "amount",
          "type": "uint256"
        },
        {
          "indexed": false,
          "internalType": "string",
          "name": "token",
          "type": "string"
        }
      ],
      "name": "Stake",
      "type": "event"
    },
    {
      "anonymous": false,
      "inputs": [
        {
          "indexed": true,
          "internalType": "address",
          "name": "sender",
          "type": "address"
        },
        {
          "indexed": false,
          "internalType": "uint256",
          "name": "amount",
          "type": "uint256"
        },
        {
          "indexed": false,
          "internalType": "string",
          "name": "token",
          "type": "string"
        }
      ],
      "name": "Unstake",
      "type": "event"
    },
    {
      "inputs": [],
      "name": "StakeEth",
      "outputs": [],
      "stateMutability": "payable",
      "type": "function"
    },
    {
      "inputs": [
        {
          "internalType": "uint256",
          "name": "_amount",
          "type": "uint256"
        }
      ],
      "name": "StakeRone",
      "outputs": [],
      "stateMutability": "nonpayable",
      "type": "function"
    },
    {
      "inputs": [],
      "name": "_rewardTokenOne",
      "outputs": [
        {
          "internalType": "contract RewardTokenOne",
          "name": "",
          "type": "address"
        }
      ],
      "stateMutability": "view",
      "type": "function"
    },
    {
      "inputs": [],
      "name": "admin",
      "outputs": [
        {
          "internalType": "address",
          "name": "",
          "type": "address"
        }
      ],
      "stateMutability": "view",
      "type": "function"
    },
    {
      "inputs": [],
      "name": "balanceOfEthStaked",
      "outputs": [
        {
          "internalType": "uint256",
          "name": "",
          "type": "uint256"
        }
      ],
      "stateMutability": "view",
      "type": "function"
    },
    {
      "inputs": [],
      "name": "balanceOfRoneStaked",
      "outputs": [
        {
          "internalType": "uint256",
          "name": "",
          "type": "uint256"
        }
      ],
      "stateMutability": "view",
      "type": "function"
    },
    {
      "inputs": [],
      "name": "calculateAndDistributeRewards",
      "outputs": [],
      "stateMutability": "nonpayable",
      "type": "function"
    },
    {
      "inputs": [],
      "name": "collectEthRewards",
      "outputs": [],
      "stateMutability": "nonpayable",
      "type": "function"
    },
    {
      "inputs": [],
      "name": "collectRoneRewards",
      "outputs": [],
      "stateMutability": "nonpayable",
      "type": "function"
    },
    {
      "inputs": [],
      "name": "ethRewardPerToken",
      "outputs": [
        {
          "internalType": "uint256",
          "name": "",
          "type": "uint256"
        }
      ],
      "stateMutability": "view",
      "type": "function"
    },
    {
      "inputs": [],
      "name": "getEthRewardsAccumulated",
      "outputs": [
        {
          "internalType": "uint256",
          "name": "",
          "type": "uint256"
        }
      ],
      "stateMutability": "view",
      "type": "function"
    },
    {
      "inputs": [],
      "name": "getEthRewardsWithdrawn",
      "outputs": [
        {
          "internalType": "uint256",
          "name": "",
          "type": "uint256"
        }
      ],
      "stateMutability": "view",
      "type": "function"
    },
    {
      "inputs": [],
      "name": "getEthStaked",
      "outputs": [
        {
          "internalType": "uint256",
          "name": "",
          "type": "uint256"
        }
      ],
      "stateMutability": "view",
      "type": "function"
    },
    {
      "inputs": [],
      "name": "getRoneRewardsAccumulated",
      "outputs": [
        {
          "internalType": "uint256",
          "name": "",
          "type": "uint256"
        }
      ],
      "stateMutability": "view",
      "type": "function"
    },
    {
      "inputs": [],
      "name": "getRoneRewardsWithdrawn",
      "outputs": [
        {
          "internalType": "uint256",
          "name": "",
          "type": "uint256"
        }
      ],
      "stateMutability": "view",
      "type": "function"
    },
    {
      "inputs": [],
      "name": "getRoneStaked",
      "outputs": [
        {
          "internalType": "uint256",
          "name": "",
          "type": "uint256"
        }
      ],
      "stateMutability": "view",
      "type": "function"
    },
    {
      "inputs": [],
      "name": "isUserStaked",
      "outputs": [
        {
          "internalType": "bool",
          "name": "",
          "type": "bool"
        }
      ],
      "stateMutability": "view",
      "type": "function"
    },
    {
      "inputs": [],
      "name": "minimumEthToStake",
      "outputs": [
        {
          "internalType": "uint256",
          "name": "",
          "type": "uint256"
        }
      ],
      "stateMutability": "view",
      "type": "function"
    },
    {
      "inputs": [],
      "name": "minimumRoneToStake",
      "outputs": [
        {
          "internalType": "uint256",
          "name": "",
          "type": "uint256"
        }
      ],
      "stateMutability": "view",
      "type": "function"
    },
    {
      "inputs": [],
      "name": "name",
      "outputs": [
        {
          "internalType": "string",
          "name": "",
          "type": "string"
        }
      ],
      "stateMutability": "view",
      "type": "function"
    },
    {
      "inputs": [],
      "name": "roneRewardPerToken",
      "outputs": [
        {
          "internalType": "uint256",
          "name": "",
          "type": "uint256"
        }
      ],
      "stateMutability": "view",
      "type": "function"
    },
    {
      "inputs": [
        {
          "internalType": "uint256",
          "name": "",
          "type": "uint256"
        }
      ],
      "name": "stakers",
      "outputs": [
        {
          "internalType": "address",
          "name": "",
          "type": "address"
        }
      ],
      "stateMutability": "view",
      "type": "function"
    },
    {
      "inputs": [],
      "name": "unStakeRone",
      "outputs": [],
      "stateMutability": "nonpayable",
      "type": "function"
    },
    {
      "inputs": [],
      "name": "unstakeEth",
      "outputs": [],
      "stateMutability": "nonpayable",
      "type": "function"
    }
  ],
  "bytecode": "0x60806040526040518060400160405280601281526020017f5374616b696e6744656d6f52696e6b6562790000000000000000000000000000815250600090805190602001906200005192919062000131565b50600f600155600460025567016345785d8a000060035568056bc75e2d631000006004553480156200008257600080fd5b50604051620034d1380380620034d18339818101604052810190620000a89190620001f8565b80600660006101000a81548173ffffffffffffffffffffffffffffffffffffffff021916908373ffffffffffffffffffffffffffffffffffffffff16021790555033600560006101000a81548173ffffffffffffffffffffffffffffffffffffffff021916908373ffffffffffffffffffffffffffffffffffffffff16021790555050620002eb565b8280546200013f906200026c565b90600052602060002090601f016020900481019282620001635760008555620001af565b82601f106200017e57805160ff1916838001178555620001af565b82800160010185558215620001af579182015b82811115620001ae57825182559160200191906001019062000191565b5b509050620001be9190620001c2565b5090565b5b80821115620001dd576000816000905550600101620001c3565b5090565b600081519050620001f281620002d1565b92915050565b6000602082840312156200020b57600080fd5b60006200021b84828501620001e1565b91505092915050565b600062000231826200024c565b9050919050565b6000620002458262000224565b9050919050565b600073ffffffffffffffffffffffffffffffffffffffff82169050919050565b600060028204905060018216806200028557607f821691505b602082108114156200029c576200029b620002a2565b5b50919050565b7f4e487b7100000000000000000000000000000000000000000000000000000000600052602260045260246000fd5b620002dc8162000238565b8114620002e857600080fd5b50565b6131d680620002fb6000396000f3fe60806040526004361061014b5760003560e01c80638f97132e116100b6578063d6f63df61161006f578063d6f63df6146103f2578063d7b77ff71461041d578063efbd4f2b14610446578063f05688f814610471578063f851a4401461047b578063fd5e6dd1146104a65761014b565b80638f97132e1461031857806391d0763114610343578063a01d402f1461035a578063bd7d196114610385578063c445ce801461039c578063c5091521146103c75761014b565b806358c72f4a1161010857806358c72f4a1461023e5780635f8098ef14610269578063669c8b72146102805780636edcbd40146102ab578063718d2dbb146102d65780637c92a6ac146103015761014b565b806306fdde0314610150578063223551811461017b57806332640a24146101a657806339bb6175146101d15780633b88a235146101fc5780634821994514610227575b600080fd5b34801561015c57600080fd5b506101656104e3565b60405161017291906129ff565b60405180910390f35b34801561018757600080fd5b50610190610571565b60405161019d9190612b01565b60405180910390f35b3480156101b257600080fd5b506101bb610577565b6040516101c89190612b01565b60405180910390f35b3480156101dd57600080fd5b506101e66105c1565b6040516101f39190612b01565b60405180910390f35b34801561020857600080fd5b5061021161060b565b60405161021e9190612b01565b60405180910390f35b34801561023357600080fd5b5061023c610611565b005b34801561024a57600080fd5b50610253610f5b565b60405161026091906129c9565b60405180910390f35b34801561027557600080fd5b5061027e610fb2565b005b34801561028c57600080fd5b50610295611356565b6040516102a29190612b01565b60405180910390f35b3480156102b757600080fd5b506102c061135c565b6040516102cd9190612b01565b60405180910390f35b3480156102e257600080fd5b506102eb6113a6565b6040516102f891906129e4565b60405180910390f35b34801561030d57600080fd5b506103166113cc565b005b34801561032457600080fd5b5061032d611680565b60405161033a9190612b01565b60405180910390f35b34801561034f57600080fd5b506103586116ca565b005b34801561036657600080fd5b5061036f61197e565b60405161037c9190612b01565b60405180910390f35b34801561039157600080fd5b5061039a611984565b005b3480156103a857600080fd5b506103b1611d2b565b6040516103be9190612b01565b60405180910390f35b3480156103d357600080fd5b506103dc611d31565b6040516103e99190612b01565b60405180910390f35b3480156103fe57600080fd5b50610407611d37565b6040516104149190612b01565b60405180910390f35b34801561042957600080fd5b50610444600480360381019061043f91906126f7565b611d81565b005b34801561045257600080fd5b5061045b61229b565b6040516104689190612b01565b60405180910390f35b6104796122e5565b005b34801561048757600080fd5b5061049061263f565b60405161049d919061294e565b60405180910390f35b3480156104b257600080fd5b506104cd60048036038101906104c891906126f7565b612665565b6040516104da919061294e565b60405180910390f35b600080546104f090612daf565b80601f016020809104026020016040519081016040528092919081815260200182805461051c90612daf565b80156105695780601f1061053e57610100808354040283529160200191610569565b820191906000526020600020905b81548152906001019060200180831161054c57829003601f168201915b505050505081565b60045481565b6000600a60003373ffffffffffffffffffffffffffffffffffffffff1673ffffffffffffffffffffffffffffffffffffffff16815260200190815260200160002060030154905090565b6000600a60003373ffffffffffffffffffffffffffffffffffffffff1673ffffffffffffffffffffffffffffffffffffffff16815260200190815260200160002060010154905090565b60085481565b600560009054906101000a900473ffffffffffffffffffffffffffffffffffffffff1673ffffffffffffffffffffffffffffffffffffffff163373ffffffffffffffffffffffffffffffffffffffff16146106a1576040517f08c379a000000000000000000000000000000000000000000000000000000000815260040161069890612ac1565b60405180910390fd5b60005b600780549050811015610f5857600162015180600a6000600785815481106106f5577f4e487b7100000000000000000000000000000000000000000000000000000000600052603260045260246000fd5b9060005260206000200160009054906101000a900473ffffffffffffffffffffffffffffffffffffffff1673ffffffffffffffffffffffffffffffffffffffff1673ffffffffffffffffffffffffffffffffffffffff16815260200190815260200160002060070154426107699190612cdc565b6107739190612c51565b1115610f45576000600a6000600784815481106107b9577f4e487b7100000000000000000000000000000000000000000000000000000000600052603260045260246000fd5b9060005260206000200160009054906101000a900473ffffffffffffffffffffffffffffffffffffffff1673ffffffffffffffffffffffffffffffffffffffff1673ffffffffffffffffffffffffffffffffffffffff168152602001908152602001600020600101541115610b0957600063bc180c38600a60006007858154811061086d577f4e487b7100000000000000000000000000000000000000000000000000000000600052603260045260246000fd5b9060005260206000200160009054906101000a900473ffffffffffffffffffffffffffffffffffffffff1673ffffffffffffffffffffffffffffffffffffffff1673ffffffffffffffffffffffffffffffffffffffff16815260200190815260200160002060070154426108e19190612cdc565b600154600a600060078781548110610922577f4e487b7100000000000000000000000000000000000000000000000000000000600052603260045260246000fd5b9060005260206000200160009054906101000a900473ffffffffffffffffffffffffffffffffffffffff1673ffffffffffffffffffffffffffffffffffffffff1673ffffffffffffffffffffffffffffffffffffffff168152602001908152602001600020600101546109959190612c82565b61099f9190612c82565b6109a99190612c51565b905080600a6000600785815481106109ea577f4e487b7100000000000000000000000000000000000000000000000000000000600052603260045260246000fd5b9060005260206000200160009054906101000a900473ffffffffffffffffffffffffffffffffffffffff1673ffffffffffffffffffffffffffffffffffffffff1673ffffffffffffffffffffffffffffffffffffffff16815260200190815260200160002060030154610a5d9190612bfb565b600a600060078581548110610a9b577f4e487b7100000000000000000000000000000000000000000000000000000000600052603260045260246000fd5b9060005260206000200160009054906101000a900473ffffffffffffffffffffffffffffffffffffffff1673ffffffffffffffffffffffffffffffffffffffff1673ffffffffffffffffffffffffffffffffffffffff16815260200190815260200160002060030181905550505b6000600a600060078481548110610b49577f4e487b7100000000000000000000000000000000000000000000000000000000600052603260045260246000fd5b9060005260206000200160009054906101000a900473ffffffffffffffffffffffffffffffffffffffff1673ffffffffffffffffffffffffffffffffffffffff1673ffffffffffffffffffffffffffffffffffffffff168152602001908152602001600020600201541115610e9957600063bc180c38600a600060078581548110610bfd577f4e487b7100000000000000000000000000000000000000000000000000000000600052603260045260246000fd5b9060005260206000200160009054906101000a900473ffffffffffffffffffffffffffffffffffffffff1673ffffffffffffffffffffffffffffffffffffffff1673ffffffffffffffffffffffffffffffffffffffff1681526020019081526020016000206007015442610c719190612cdc565b600254600a600060078781548110610cb2577f4e487b7100000000000000000000000000000000000000000000000000000000600052603260045260246000fd5b9060005260206000200160009054906101000a900473ffffffffffffffffffffffffffffffffffffffff1673ffffffffffffffffffffffffffffffffffffffff1673ffffffffffffffffffffffffffffffffffffffff16815260200190815260200160002060020154610d259190612c82565b610d2f9190612c82565b610d399190612c51565b905080600a600060078581548110610d7a577f4e487b7100000000000000000000000000000000000000000000000000000000600052603260045260246000fd5b9060005260206000200160009054906101000a900473ffffffffffffffffffffffffffffffffffffffff1673ffffffffffffffffffffffffffffffffffffffff1673ffffffffffffffffffffffffffffffffffffffff16815260200190815260200160002060050154610ded9190612bfb565b600a600060078581548110610e2b577f4e487b7100000000000000000000000000000000000000000000000000000000600052603260045260246000fd5b9060005260206000200160009054906101000a900473ffffffffffffffffffffffffffffffffffffffff1673ffffffffffffffffffffffffffffffffffffffff1673ffffffffffffffffffffffffffffffffffffffff16815260200190815260200160002060050181905550505b42600a600060078481548110610ed8577f4e487b7100000000000000000000000000000000000000000000000000000000600052603260045260246000fd5b9060005260206000200160009054906101000a900473ffffffffffffffffffffffffffffffffffffffff1673ffffffffffffffffffffffffffffffffffffffff1673ffffffffffffffffffffffffffffffffffffffff168152602001908152602001600020600701819055505b8080610f5090612de1565b9150506106a4565b50565b6000600a60003373ffffffffffffffffffffffffffffffffffffffff1673ffffffffffffffffffffffffffffffffffffffff16815260200190815260200160002060000160009054906101000a900460ff16905090565b60011515600a60003373ffffffffffffffffffffffffffffffffffffffff1673ffffffffffffffffffffffffffffffffffffffff16815260200190815260200160002060000160009054906101000a900460ff16151514611048576040517f08c379a000000000000000000000000000000000000000000000000000000000815260040161103f90612ae1565b60405180910390fd5b6000600a60003373ffffffffffffffffffffffffffffffffffffffff1673ffffffffffffffffffffffffffffffffffffffff16815260200190815260200160002060010154116110cd576040517f08c379a00000000000000000000000000000000000000000000000000000000081526004016110c490612ae1565b60405180910390fd5b60003373ffffffffffffffffffffffffffffffffffffffff16600a60003373ffffffffffffffffffffffffffffffffffffffff1673ffffffffffffffffffffffffffffffffffffffff1681526020019081526020016000206001015460405161113590612939565b60006040518083038185875af1925050503d8060008114611172576040519150601f19603f3d011682016040523d82523d6000602084013e611177565b606091505b50509050806111bb576040517f08c379a00000000000000000000000000000000000000000000000000000000081526004016111b290612a81565b60405180910390fd5b6000600a60003373ffffffffffffffffffffffffffffffffffffffff1673ffffffffffffffffffffffffffffffffffffffff1681526020019081526020016000206001015490506000600a60003373ffffffffffffffffffffffffffffffffffffffff1673ffffffffffffffffffffffffffffffffffffffff168152602001908152602001600020600101819055506000600a60003373ffffffffffffffffffffffffffffffffffffffff1673ffffffffffffffffffffffffffffffffffffffff16815260200190815260200160002060020154116112f0576000600a60003373ffffffffffffffffffffffffffffffffffffffff1673ffffffffffffffffffffffffffffffffffffffff16815260200190815260200160002060000160006101000a81548160ff0219169083151502179055505b806008546112fe9190612cdc565b6008819055503373ffffffffffffffffffffffffffffffffffffffff167f87c2b4b06ba3902f4ed6e7b1cc2807a2647b5f535c7c04f7b3ce122f47cc11fc8260405161134a9190612b4a565b60405180910390a25050565b60035481565b6000600a60003373ffffffffffffffffffffffffffffffffffffffff1673ffffffffffffffffffffffffffffffffffffffff16815260200190815260200160002060060154905090565b600660009054906101000a900473ffffffffffffffffffffffffffffffffffffffff1681565b60011515600a60003373ffffffffffffffffffffffffffffffffffffffff1673ffffffffffffffffffffffffffffffffffffffff16815260200190815260200160002060000160009054906101000a900460ff16151514611462576040517f08c379a000000000000000000000000000000000000000000000000000000000815260040161145990612a61565b60405180910390fd5b6000600a60003373ffffffffffffffffffffffffffffffffffffffff1673ffffffffffffffffffffffffffffffffffffffff16815260200190815260200160002060040154600a60003373ffffffffffffffffffffffffffffffffffffffff1673ffffffffffffffffffffffffffffffffffffffff168152602001908152602001600020600301546114f49190612cdc565b905060008111611539576040517f08c379a000000000000000000000000000000000000000000000000000000000815260040161153090612a41565b60405180910390fd5b600660009054906101000a900473ffffffffffffffffffffffffffffffffffffffff1673ffffffffffffffffffffffffffffffffffffffff1663a9059cbb33836040518363ffffffff1660e01b81526004016115969291906129a0565b602060405180830381600087803b1580156115b057600080fd5b505af11580156115c4573d6000803e3d6000fd5b505050506040513d601f19601f820116820180604052508101906115e891906126ce565b5080600a60003373ffffffffffffffffffffffffffffffffffffffff1673ffffffffffffffffffffffffffffffffffffffff168152602001908152602001600020600401546116379190612bfb565b600a60003373ffffffffffffffffffffffffffffffffffffffff1673ffffffffffffffffffffffffffffffffffffffff1681526020019081526020016000206004018190555050565b6000600a60003373ffffffffffffffffffffffffffffffffffffffff1673ffffffffffffffffffffffffffffffffffffffff16815260200190815260200160002060020154905090565b60011515600a60003373ffffffffffffffffffffffffffffffffffffffff1673ffffffffffffffffffffffffffffffffffffffff16815260200190815260200160002060000160009054906101000a900460ff16151514611760576040517f08c379a000000000000000000000000000000000000000000000000000000000815260040161175790612a61565b60405180910390fd5b6000600a60003373ffffffffffffffffffffffffffffffffffffffff1673ffffffffffffffffffffffffffffffffffffffff16815260200190815260200160002060060154600a60003373ffffffffffffffffffffffffffffffffffffffff1673ffffffffffffffffffffffffffffffffffffffff168152602001908152602001600020600501546117f29190612cdc565b905060008111611837576040517f08c379a000000000000000000000000000000000000000000000000000000000815260040161182e90612a41565b60405180910390fd5b600660009054906101000a900473ffffffffffffffffffffffffffffffffffffffff1673ffffffffffffffffffffffffffffffffffffffff1663a9059cbb33836040518363ffffffff1660e01b81526004016118949291906129a0565b602060405180830381600087803b1580156118ae57600080fd5b505af11580156118c2573d6000803e3d6000fd5b505050506040513d601f19601f820116820180604052508101906118e691906126ce565b5080600a60003373ffffffffffffffffffffffffffffffffffffffff1673ffffffffffffffffffffffffffffffffffffffff168152602001908152602001600020600601546119359190612bfb565b600a60003373ffffffffffffffffffffffffffffffffffffffff1673ffffffffffffffffffffffffffffffffffffffff1681526020019081526020016000206006018190555050565b60095481565b60011515600a60003373ffffffffffffffffffffffffffffffffffffffff1673ffffffffffffffffffffffffffffffffffffffff16815260200190815260200160002060000160009054906101000a900460ff16151514611a1a576040517f08c379a0000000000000000000000000000000000000000000000000000000008152600401611a1190612ae1565b60405180910390fd5b6000600a60003373ffffffffffffffffffffffffffffffffffffffff1673ffffffffffffffffffffffffffffffffffffffff1681526020019081526020016000206002015411611a9f576040517f08c379a0000000000000000000000000000000000000000000000000000000008152600401611a9690612ae1565b60405180910390fd5b600660009054906101000a900473ffffffffffffffffffffffffffffffffffffffff1673ffffffffffffffffffffffffffffffffffffffff1663a9059cbb33600a60003373ffffffffffffffffffffffffffffffffffffffff1673ffffffffffffffffffffffffffffffffffffffff168152602001908152602001600020600201546040518363ffffffff1660e01b8152600401611b3e9291906129a0565b602060405180830381600087803b158015611b5857600080fd5b505af1158015611b6c573d6000803e3d6000fd5b505050506040513d601f19601f82011682018060405250810190611b9091906126ce565b506000600a60003373ffffffffffffffffffffffffffffffffffffffff1673ffffffffffffffffffffffffffffffffffffffff1681526020019081526020016000206002015490506000600a60003373ffffffffffffffffffffffffffffffffffffffff1673ffffffffffffffffffffffffffffffffffffffff168152602001908152602001600020600201819055506000600a60003373ffffffffffffffffffffffffffffffffffffffff1673ffffffffffffffffffffffffffffffffffffffff1681526020019081526020016000206001015411611cc6576000600a60003373ffffffffffffffffffffffffffffffffffffffff1673ffffffffffffffffffffffffffffffffffffffff16815260200190815260200160002060000160006101000a81548160ff0219169083151502179055505b80600954611cd49190612cdc565b6009819055503373ffffffffffffffffffffffffffffffffffffffff167f87c2b4b06ba3902f4ed6e7b1cc2807a2647b5f535c7c04f7b3ce122f47cc11fc82604051611d209190612b1c565b60405180910390a250565b60025481565b60015481565b6000600a60003373ffffffffffffffffffffffffffffffffffffffff1673ffffffffffffffffffffffffffffffffffffffff16815260200190815260200160002060040154905090565b6004548111611dc5576040517f08c379a0000000000000000000000000000000000000000000000000000000008152600401611dbc90612aa1565b60405180910390fd5b60001515600a60003373ffffffffffffffffffffffffffffffffffffffff1673ffffffffffffffffffffffffffffffffffffffff16815260200190815260200160002060000160009054906101000a900460ff161515141561209457600660009054906101000a900473ffffffffffffffffffffffffffffffffffffffff1673ffffffffffffffffffffffffffffffffffffffff166323b872dd3330846040518463ffffffff1660e01b8152600401611e8093929190612969565b602060405180830381600087803b158015611e9a57600080fd5b505af1158015611eae573d6000803e3d6000fd5b505050506040513d601f19601f82011682018060405250810190611ed291906126ce565b50604051806101000160405280600115158152602001600081526020018281526020016000815260200160008152602001600081526020016000815260200142815250600a60003373ffffffffffffffffffffffffffffffffffffffff1673ffffffffffffffffffffffffffffffffffffffff16815260200190815260200160002060008201518160000160006101000a81548160ff0219169083151502179055506020820151816001015560408201518160020155606082015181600301556080820151816004015560a0820151816005015560c0820151816006015560e082015181600701559050506001600a60003373ffffffffffffffffffffffffffffffffffffffff1673ffffffffffffffffffffffffffffffffffffffff16815260200190815260200160002060000160006101000a81548160ff0219169083151502179055506007339080600181540180825580915050600190039060005260206000200160009091909190916101000a81548173ffffffffffffffffffffffffffffffffffffffff021916908373ffffffffffffffffffffffffffffffffffffffff160217905550806009546120899190612bfb565b60098190555061224a565b600660009054906101000a900473ffffffffffffffffffffffffffffffffffffffff1673ffffffffffffffffffffffffffffffffffffffff166323b872dd3330846040518463ffffffff1660e01b81526004016120f393929190612969565b602060405180830381600087803b15801561210d57600080fd5b505af1158015612121573d6000803e3d6000fd5b505050506040513d601f19601f8201168201806040525081019061214591906126ce565b5080600a60003373ffffffffffffffffffffffffffffffffffffffff1673ffffffffffffffffffffffffffffffffffffffff168152602001908152602001600020600201546121949190612bfb565b600a60003373ffffffffffffffffffffffffffffffffffffffff1673ffffffffffffffffffffffffffffffffffffffff168152602001908152602001600020600201819055506001600a60003373ffffffffffffffffffffffffffffffffffffffff1673ffffffffffffffffffffffffffffffffffffffff16815260200190815260200160002060000160006101000a81548160ff021916908315150217905550806009546122439190612bfb565b6009819055505b3373ffffffffffffffffffffffffffffffffffffffff167f72d0050d8f1a0f19ace5b1f50e8b5333308c60902442b7444a65cfffbad884e7826040516122909190612b78565b60405180910390a250565b6000600a60003373ffffffffffffffffffffffffffffffffffffffff1673ffffffffffffffffffffffffffffffffffffffff16815260200190815260200160002060050154905090565b6003543411612329576040517f08c379a000000000000000000000000000000000000000000000000000000000815260040161232090612a21565b60405180910390fd5b60001515600a60003373ffffffffffffffffffffffffffffffffffffffff1673ffffffffffffffffffffffffffffffffffffffff16815260200190815260200160002060000160009054906101000a900460ff16151514156124eb57604051806101000160405280600115158152602001348152602001600081526020016000815260200160008152602001600081526020016000815260200142815250600a60003373ffffffffffffffffffffffffffffffffffffffff1673ffffffffffffffffffffffffffffffffffffffff16815260200190815260200160002060008201518160000160006101000a81548160ff0219169083151502179055506020820151816001015560408201518160020155606082015181600301556080820151816004015560a0820151816005015560c0820151816006015560e082015181600701559050506007339080600181540180825580915050600190039060005260206000200160009091909190916101000a81548173ffffffffffffffffffffffffffffffffffffffff021916908373ffffffffffffffffffffffffffffffffffffffff160217905550346008546124e09190612bfb565b6008819055506125ef565b34600a60003373ffffffffffffffffffffffffffffffffffffffff1673ffffffffffffffffffffffffffffffffffffffff168152602001908152602001600020600101546125399190612bfb565b600a60003373ffffffffffffffffffffffffffffffffffffffff1673ffffffffffffffffffffffffffffffffffffffff168152602001908152602001600020600101819055506001600a60003373ffffffffffffffffffffffffffffffffffffffff1673ffffffffffffffffffffffffffffffffffffffff16815260200190815260200160002060000160006101000a81548160ff021916908315150217905550346008546125e89190612bfb565b6008819055505b3373ffffffffffffffffffffffffffffffffffffffff167f72d0050d8f1a0f19ace5b1f50e8b5333308c60902442b7444a65cfffbad884e7346040516126359190612ba6565b60405180910390a2565b600560009054906101000a900473ffffffffffffffffffffffffffffffffffffffff1681565b6007818154811061267557600080fd5b906000526020600020016000915054906101000a900473ffffffffffffffffffffffffffffffffffffffff1681565b6000815190506126b381613172565b92915050565b6000813590506126c881613189565b92915050565b6000602082840312156126e057600080fd5b60006126ee848285016126a4565b91505092915050565b60006020828403121561270957600080fd5b6000612717848285016126b9565b91505092915050565b61272981612d10565b82525050565b61273881612d22565b82525050565b61274781612d58565b82525050565b600061275882612bd4565b6127628185612bea565b9350612772818560208601612d7c565b61277b81612eb7565b840191505092915050565b6000612793602383612bea565b915061279e82612ec8565b604082019050919050565b60006127b6600d83612bea565b91506127c182612f17565b602082019050919050565b60006127d9601583612bea565b91506127e482612f40565b602082019050919050565b60006127fc600c83612bea565b915061280782612f69565b602082019050919050565b600061281f600b83612bea565b915061282a82612f92565b602082019050919050565b6000612842603483612bea565b915061284d82612fbb565b604082019050919050565b6000612865600a83612bea565b91506128708261300a565b602082019050919050565b6000612888602c83612bea565b915061289382613033565b604082019050919050565b60006128ab600083612bdf565b91506128b682613082565b600082019050919050565b60006128ce602483612bea565b91506128d982613085565b604082019050919050565b60006128f1602183612bea565b91506128fc826130d4565b604082019050919050565b6000612914602383612bea565b915061291f82613123565b604082019050919050565b61293381612d4e565b82525050565b60006129448261289e565b9150819050919050565b60006020820190506129636000830184612720565b92915050565b600060608201905061297e6000830186612720565b61298b6020830185612720565b612998604083018461292a565b949350505050565b60006040820190506129b56000830185612720565b6129c2602083018461292a565b9392505050565b60006020820190506129de600083018461272f565b92915050565b60006020820190506129f9600083018461273e565b92915050565b60006020820190508181036000830152612a19818461274d565b905092915050565b60006020820190508181036000830152612a3a81612786565b9050919050565b60006020820190508181036000830152612a5a816127cc565b9050919050565b60006020820190508181036000830152612a7a81612835565b9050919050565b60006020820190508181036000830152612a9a8161287b565b9050919050565b60006020820190508181036000830152612aba816128c1565b9050919050565b60006020820190508181036000830152612ada816128e4565b9050919050565b60006020820190508181036000830152612afa81612907565b9050919050565b6000602082019050612b16600083018461292a565b92915050565b6000604082019050612b31600083018461292a565b8181036020830152612b42816127a9565b905092915050565b6000604082019050612b5f600083018461292a565b8181036020830152612b70816127ef565b905092915050565b6000604082019050612b8d600083018461292a565b8181036020830152612b9e81612812565b905092915050565b6000604082019050612bbb600083018461292a565b8181036020830152612bcc81612858565b905092915050565b600081519050919050565b600081905092915050565b600082825260208201905092915050565b6000612c0682612d4e565b9150612c1183612d4e565b9250827fffffffffffffffffffffffffffffffffffffffffffffffffffffffffffffffff03821115612c4657612c45612e2a565b5b828201905092915050565b6000612c5c82612d4e565b9150612c6783612d4e565b925082612c7757612c76612e59565b5b828204905092915050565b6000612c8d82612d4e565b9150612c9883612d4e565b9250817fffffffffffffffffffffffffffffffffffffffffffffffffffffffffffffffff0483118215151615612cd157612cd0612e2a565b5b828202905092915050565b6000612ce782612d4e565b9150612cf283612d4e565b925082821015612d0557612d04612e2a565b5b828203905092915050565b6000612d1b82612d2e565b9050919050565b60008115159050919050565b600073ffffffffffffffffffffffffffffffffffffffff82169050919050565b6000819050919050565b6000612d6382612d6a565b9050919050565b6000612d7582612d2e565b9050919050565b60005b83811015612d9a578082015181840152602081019050612d7f565b83811115612da9576000848401525b50505050565b60006002820490506001821680612dc757607f821691505b60208210811415612ddb57612dda612e88565b5b50919050565b6000612dec82612d4e565b91507fffffffffffffffffffffffffffffffffffffffffffffffffffffffffffffffff821415612e1f57612e1e612e2a565b5b600182019050919050565b7f4e487b7100000000000000000000000000000000000000000000000000000000600052601160045260246000fd5b7f4e487b7100000000000000000000000000000000000000000000000000000000600052601260045260246000fd5b7f4e487b7100000000000000000000000000000000000000000000000000000000600052602260045260246000fd5b6000601f19601f8301169050919050565b7f526571756972656564206d696e696d6d756d20302e312045746820746f20737460008201527f616b650000000000000000000000000000000000000000000000000000000000602082015250565b7f526f6e6520556e5374616b656400000000000000000000000000000000000000600082015250565b7f4e6f207265776172647320746f20636f6c6c6563740000000000000000000000600082015250565b7f45746820556e5374616b65640000000000000000000000000000000000000000600082015250565b7f526f6e65205374616b6564000000000000000000000000000000000000000000600082015250565b7f796f752073686f756c642068617665207374616b6564206574682f726f6e652060008201527f746f2063616c63756c6174652072657761726473000000000000000000000000602082015250565b7f455448207374616b656400000000000000000000000000000000000000000000600082015250565b7f4661696c656420746f2073656e6420757365722062616c616e6365206261636b60008201527f20746f2074686520757365720000000000000000000000000000000000000000602082015250565b50565b7f526571756972656564206d696e696d6d756d2031303020524f4e4520746f207360008201527f74616b6500000000000000000000000000000000000000000000000000000000602082015250565b7f6f6e6c792061646d696e732063616e206469737472696275746520617761726460008201527f7300000000000000000000000000000000000000000000000000000000000000602082015250565b7f7573657220686176656e2774207374616b65642045746820776974682075732060008201527f2121210000000000000000000000000000000000000000000000000000000000602082015250565b61317b81612d22565b811461318657600080fd5b50565b61319281612d4e565b811461319d57600080fd5b5056fea2646970667358221220a67a4907d98337fed825dfa3503e0885966fa0df2aa24097b7463888294e2adb64736f6c63430008040033",
  "linkReferences": {},
  "deployedLinkReferences": {}
}