{
  "_format": "hh-sol-artifact-1",
  "contractName": "RewardTokenOne",
  "sourceName": "contracts/RewardTokenOne.sol",
  "abi": [
    {
      "inputs": [
        {
          "internalType": "uint256",
          "name": "_supply",
          "type": "uint256"
        }
      ],
      "stateMutability": "nonpayable",
      "type": "constructor"
    },
    {
      "anonymous": false,
      "inputs": [
        {
          "indexed": true,
          "internalType": "address",
          "name": "owner",
          "type": "address"
        },
        {
          "indexed": true,
          "internalType": "address",
          "name": "spender",
          "type": "address"
        },
        {
          "indexed": false,
          "internalType": "uint256",
          "name": "value",
          "type": "uint256"
        }
      ],
      "name": "Approval",
      "type": "event"
    },
    {
      "anonymous": false,
      "inputs": [
        {
          "indexed": true,
          "internalType": "address",
          "name": "from",
          "type": "address"
        },
        {
          "indexed": true,
          "internalType": "address",
          "name": "to",
          "type": "address"
        },
        {
          "indexed": false,
          "internalType": "uint256",
          "name": "value",
          "type": "uint256"
        }
      ],
      "name": "Transfer",
      "type": "event"
    },
    {
      "inputs": [],
      "name": "admin",
      "outputs": [
        {
          "internalType": "address",
          "name": "",
          "type": "address"
        }
      ],
      "stateMutability": "view",
      "type": "function"
    },
    {
      "inputs": [
        {
          "internalType": "address",
          "name": "owner",
          "type": "address"
        },
        {
          "internalType": "address",
          "name": "spender",
          "type": "address"
        }
      ],
      "name": "allowance",
      "outputs": [
        {
          "internalType": "uint256",
          "name": "",
          "type": "uint256"
        }
      ],
      "stateMutability": "view",
      "type": "function"
    },
    {
      "inputs": [
        {
          "internalType": "address",
          "name": "spender",
          "type": "address"
        },
        {
          "internalType": "uint256",
          "name": "amount",
          "type": "uint256"
        }
      ],
      "name": "approve",
      "outputs": [
        {
          "internalType": "bool",
          "name": "",
          "type": "bool"
        }
      ],
      "stateMutability": "nonpayable",
      "type": "function"
    },
    {
      "inputs": [
        {
          "internalType": "address",
          "name": "account",
          "type": "address"
        }
      ],
      "name": "balanceOf",
      "outputs": [
        {
          "internalType": "uint256",
          "name": "",
          "type": "uint256"
        }
      ],
      "stateMutability": "view",
      "type": "function"
    },
    {
      "inputs": [
        {
          "internalType": "uint256",
          "name": "amount",
          "type": "uint256"
        }
      ],
      "name": "burn",
      "outputs": [],
      "stateMutability": "nonpayable",
      "type": "function"
    },
    {
      "inputs": [],
      "name": "decimals",
      "outputs": [
        {
          "internalType": "uint8",
          "name": "",
          "type": "uint8"
        }
      ],
      "stateMutability": "view",
      "type": "function"
    },
    {
      "inputs": [
        {
          "internalType": "address",
          "name": "spender",
          "type": "address"
        },
        {
          "internalType": "uint256",
          "name": "subtractedValue",
          "type": "uint256"
        }
      ],
      "name": "decreaseAllowance",
      "outputs": [
        {
          "internalType": "bool",
          "name": "",
          "type": "bool"
        }
      ],
      "stateMutability": "nonpayable",
      "type": "function"
    },
    {
      "inputs": [
        {
          "internalType": "address",
          "name": "spender",
          "type": "address"
        },
        {
          "internalType": "uint256",
          "name": "addedValue",
          "type": "uint256"
        }
      ],
      "name": "increaseAllowance",
      "outputs": [
        {
          "internalType": "bool",
          "name": "",
          "type": "bool"
        }
      ],
      "stateMutability": "nonpayable",
      "type": "function"
    },
    {
      "inputs": [
        {
          "internalType": "address",
          "name": "to",
          "type": "address"
        },
        {
          "internalType": "uint256",
          "name": "amount",
          "type": "uint256"
        }
      ],
      "name": "mint",
      "outputs": [],
      "stateMutability": "nonpayable",
      "type": "function"
    },
    {
      "inputs": [],
      "name": "name",
      "outputs": [
        {
          "internalType": "string",
          "name": "",
          "type": "string"
        }
      ],
      "stateMutability": "view",
      "type": "function"
    },
    {
      "inputs": [],
      "name": "symbol",
      "outputs": [
        {
          "internalType": "string",
          "name": "",
          "type": "string"
        }
      ],
      "stateMutability": "view",
      "type": "function"
    },
    {
      "inputs": [],
      "name": "totalSupply",
      "outputs": [
        {
          "internalType": "uint256",
          "name": "",
          "type": "uint256"
        }
      ],
      "stateMutability": "view",
      "type": "function"
    },
    {
      "inputs": [
        {
          "internalType": "address",
          "name": "recipient",
          "type": "address"
        },
        {
          "internalType": "uint256",
          "name": "amount",
          "type": "uint256"
        }
      ],
      "name": "transfer",
      "outputs": [
        {
          "internalType": "bool",
          "name": "",
          "type": "bool"
        }
      ],
      "stateMutability": "nonpayable",
      "type": "function"
    },
    {
      "inputs": [
        {
          "internalType": "address",
          "name": "sender",
          "type": "address"
        },
        {
          "internalType": "address",
          "name": "recipient",
          "type": "address"
        },
        {
          "internalType": "uint256",
          "name": "amount",
          "type": "uint256"
        }
      ],
      "name": "transferFrom",
      "outputs": [
        {
          "internalType": "bool",
          "name": "",
          "type": "bool"
        }
      ],
      "stateMutability": "nonpayable",
      "type": "function"
    }
  ],
  "bytecode": "0x60806040523480156200001157600080fd5b506040516200237e3803806200237e8339818101604052810190620000379190620003ae565b6040518060400160405280600e81526020017f526577617264546f6b656e4f6e650000000000000000000000000000000000008152506040518060400160405280600481526020017f524f4e45000000000000000000000000000000000000000000000000000000008152508160039080519060200190620000bb929190620002e7565b508060049080519060200190620000d4929190620002e7565b50505033600560006101000a81548173ffffffffffffffffffffffffffffffffffffffff021916908373ffffffffffffffffffffffffffffffffffffffff16021790555062000154336200012d6200015b60201b60201c565b600a6200013b91906200051a565b8362000148919062000657565b6200016460201b60201c565b50620007b3565b60006012905090565b600073ffffffffffffffffffffffffffffffffffffffff168273ffffffffffffffffffffffffffffffffffffffff161415620001d7576040517f08c379a0000000000000000000000000000000000000000000000000000000008152600401620001ce9062000412565b60405180910390fd5b620001eb60008383620002dd60201b60201c565b8060026000828254620001ff919062000462565b92505081905550806000808473ffffffffffffffffffffffffffffffffffffffff1673ffffffffffffffffffffffffffffffffffffffff168152602001908152602001600020600082825462000256919062000462565b925050819055508173ffffffffffffffffffffffffffffffffffffffff16600073ffffffffffffffffffffffffffffffffffffffff167fddf252ad1be2c89b69c2b068fc378daa952ba7f163c4a11628f55a4df523b3ef83604051620002bd919062000434565b60405180910390a3620002d960008383620002e260201b60201c565b5050565b505050565b505050565b828054620002f590620006cf565b90600052602060002090601f01602090048101928262000319576000855562000365565b82601f106200033457805160ff191683800117855562000365565b8280016001018555821562000365579182015b828111156200036457825182559160200191906001019062000347565b5b50905062000374919062000378565b5090565b5b808211156200039357600081600090555060010162000379565b5090565b600081519050620003a88162000799565b92915050565b600060208284031215620003c157600080fd5b6000620003d18482850162000397565b91505092915050565b6000620003e9601f8362000451565b9150620003f68262000770565b602082019050919050565b6200040c81620006b8565b82525050565b600060208201905081810360008301526200042d81620003da565b9050919050565b60006020820190506200044b600083018462000401565b92915050565b600082825260208201905092915050565b60006200046f82620006b8565b91506200047c83620006b8565b9250827fffffffffffffffffffffffffffffffffffffffffffffffffffffffffffffffff03821115620004b457620004b362000705565b5b828201905092915050565b6000808291508390505b60018511156200051157808604811115620004e957620004e862000705565b5b6001851615620004f95780820291505b8081029050620005098562000763565b9450620004c9565b94509492505050565b60006200052782620006b8565b91506200053483620006c2565b9250620005637fffffffffffffffffffffffffffffffffffffffffffffffffffffffffffffffff84846200056b565b905092915050565b6000826200057d576001905062000650565b816200058d576000905062000650565b8160018114620005a65760028114620005b157620005e7565b600191505062000650565b60ff841115620005c657620005c562000705565b5b8360020a915084821115620005e057620005df62000705565b5b5062000650565b5060208310610133831016604e8410600b8410161715620006215782820a9050838111156200061b576200061a62000705565b5b62000650565b620006308484846001620004bf565b925090508184048111156200064a576200064962000705565b5b81810290505b9392505050565b60006200066482620006b8565b91506200067183620006b8565b9250817fffffffffffffffffffffffffffffffffffffffffffffffffffffffffffffffff0483118215151615620006ad57620006ac62000705565b5b828202905092915050565b6000819050919050565b600060ff82169050919050565b60006002820490506001821680620006e857607f821691505b60208210811415620006ff57620006fe62000734565b5b50919050565b7f4e487b7100000000000000000000000000000000000000000000000000000000600052601160045260246000fd5b7f4e487b7100000000000000000000000000000000000000000000000000000000600052602260045260246000fd5b60008160011c9050919050565b7f45524332303a206d696e7420746f20746865207a65726f206164647265737300600082015250565b620007a481620006b8565b8114620007b057600080fd5b50565b611bbb80620007c36000396000f3fe608060405234801561001057600080fd5b50600436106100ea5760003560e01c806342966c681161008c578063a457c2d711610066578063a457c2d71461025f578063a9059cbb1461028f578063dd62ed3e146102bf578063f851a440146102ef576100ea565b806342966c68146101f557806370a082311461021157806395d89b4114610241576100ea565b806323b872dd116100c857806323b872dd1461015b578063313ce5671461018b57806339509351146101a957806340c10f19146101d9576100ea565b806306fdde03146100ef578063095ea7b31461010d57806318160ddd1461013d575b600080fd5b6100f761030d565b6040516101049190611422565b60405180910390f35b6101276004803603810190610122919061116e565b61039f565b6040516101349190611407565b60405180910390f35b6101456103bd565b60405161015291906115c4565b60405180910390f35b6101756004803603810190610170919061111f565b6103c7565b6040516101829190611407565b60405180910390f35b6101936104bf565b6040516101a091906115df565b60405180910390f35b6101c360048036038101906101be919061116e565b6104c8565b6040516101d09190611407565b60405180910390f35b6101f360048036038101906101ee919061116e565b610574565b005b61020f600480360381019061020a91906111aa565b61065e565b005b61022b600480360381019061022691906110ba565b61066b565b60405161023891906115c4565b60405180910390f35b6102496106b3565b6040516102569190611422565b60405180910390f35b6102796004803603810190610274919061116e565b610745565b6040516102869190611407565b60405180910390f35b6102a960048036038101906102a4919061116e565b610830565b6040516102b69190611407565b60405180910390f35b6102d960048036038101906102d491906110e3565b61084e565b6040516102e691906115c4565b60405180910390f35b6102f76108d5565b60405161030491906113ec565b60405180910390f35b60606003805461031c90611728565b80601f016020809104026020016040519081016040528092919081815260200182805461034890611728565b80156103955780601f1061036a57610100808354040283529160200191610395565b820191906000526020600020905b81548152906001019060200180831161037857829003601f168201915b5050505050905090565b60006103b36103ac6108fb565b8484610903565b6001905092915050565b6000600254905090565b60006103d4848484610ace565b6000600160008673ffffffffffffffffffffffffffffffffffffffff1673ffffffffffffffffffffffffffffffffffffffff168152602001908152602001600020600061041f6108fb565b73ffffffffffffffffffffffffffffffffffffffff1673ffffffffffffffffffffffffffffffffffffffff1681526020019081526020016000205490508281101561049f576040517f08c379a0000000000000000000000000000000000000000000000000000000008152600401610496906114e4565b60405180910390fd5b6104b3856104ab6108fb565b858403610903565b60019150509392505050565b60006012905090565b600061056a6104d56108fb565b8484600160006104e36108fb565b73ffffffffffffffffffffffffffffffffffffffff1673ffffffffffffffffffffffffffffffffffffffff16815260200190815260200160002060008873ffffffffffffffffffffffffffffffffffffffff1673ffffffffffffffffffffffffffffffffffffffff168152602001908152602001600020546105659190611616565b610903565b6001905092915050565b600560009054906101000a900473ffffffffffffffffffffffffffffffffffffffff1673ffffffffffffffffffffffffffffffffffffffff163373ffffffffffffffffffffffffffffffffffffffff1614610604576040517f08c379a00000000000000000000000000000000000000000000000000000000081526004016105fb906114a4565b60405180910390fd5b69021e27c1806e59a400008110610650576040517f08c379a000000000000000000000000000000000000000000000000000000000815260040161064790611564565b60405180910390fd5b61065a8282610d4f565b5050565b6106683382610eaf565b50565b60008060008373ffffffffffffffffffffffffffffffffffffffff1673ffffffffffffffffffffffffffffffffffffffff168152602001908152602001600020549050919050565b6060600480546106c290611728565b80601f01602080910402602001604051908101604052809291908181526020018280546106ee90611728565b801561073b5780601f106107105761010080835404028352916020019161073b565b820191906000526020600020905b81548152906001019060200180831161071e57829003601f168201915b5050505050905090565b600080600160006107546108fb565b73ffffffffffffffffffffffffffffffffffffffff1673ffffffffffffffffffffffffffffffffffffffff16815260200190815260200160002060008573ffffffffffffffffffffffffffffffffffffffff1673ffffffffffffffffffffffffffffffffffffffff16815260200190815260200160002054905082811015610811576040517f08c379a000000000000000000000000000000000000000000000000000000000815260040161080890611584565b60405180910390fd5b61082561081c6108fb565b85858403610903565b600191505092915050565b600061084461083d6108fb565b8484610ace565b6001905092915050565b6000600160008473ffffffffffffffffffffffffffffffffffffffff1673ffffffffffffffffffffffffffffffffffffffff16815260200190815260200160002060008373ffffffffffffffffffffffffffffffffffffffff1673ffffffffffffffffffffffffffffffffffffffff16815260200190815260200160002054905092915050565b600560009054906101000a900473ffffffffffffffffffffffffffffffffffffffff1681565b600033905090565b600073ffffffffffffffffffffffffffffffffffffffff168373ffffffffffffffffffffffffffffffffffffffff161415610973576040517f08c379a000000000000000000000000000000000000000000000000000000000815260040161096a90611544565b60405180910390fd5b600073ffffffffffffffffffffffffffffffffffffffff168273ffffffffffffffffffffffffffffffffffffffff1614156109e3576040517f08c379a00000000000000000000000000000000000000000000000000000000081526004016109da90611484565b60405180910390fd5b80600160008573ffffffffffffffffffffffffffffffffffffffff1673ffffffffffffffffffffffffffffffffffffffff16815260200190815260200160002060008473ffffffffffffffffffffffffffffffffffffffff1673ffffffffffffffffffffffffffffffffffffffff168152602001908152602001600020819055508173ffffffffffffffffffffffffffffffffffffffff168373ffffffffffffffffffffffffffffffffffffffff167f8c5be1e5ebec7d5bd14f71427d1e84f3dd0314c0f7b2291e5b200ac8c7c3b92583604051610ac191906115c4565b60405180910390a3505050565b600073ffffffffffffffffffffffffffffffffffffffff168373ffffffffffffffffffffffffffffffffffffffff161415610b3e576040517f08c379a0000000000000000000000000000000000000000000000000000000008152600401610b3590611524565b60405180910390fd5b600073ffffffffffffffffffffffffffffffffffffffff168273ffffffffffffffffffffffffffffffffffffffff161415610bae576040517f08c379a0000000000000000000000000000000000000000000000000000000008152600401610ba590611444565b60405180910390fd5b610bb9838383611086565b60008060008573ffffffffffffffffffffffffffffffffffffffff1673ffffffffffffffffffffffffffffffffffffffff16815260200190815260200160002054905081811015610c3f576040517f08c379a0000000000000000000000000000000000000000000000000000000008152600401610c36906114c4565b60405180910390fd5b8181036000808673ffffffffffffffffffffffffffffffffffffffff1673ffffffffffffffffffffffffffffffffffffffff16815260200190815260200160002081905550816000808573ffffffffffffffffffffffffffffffffffffffff1673ffffffffffffffffffffffffffffffffffffffff1681526020019081526020016000206000828254610cd29190611616565b925050819055508273ffffffffffffffffffffffffffffffffffffffff168473ffffffffffffffffffffffffffffffffffffffff167fddf252ad1be2c89b69c2b068fc378daa952ba7f163c4a11628f55a4df523b3ef84604051610d3691906115c4565b60405180910390a3610d4984848461108b565b50505050565b600073ffffffffffffffffffffffffffffffffffffffff168273ffffffffffffffffffffffffffffffffffffffff161415610dbf576040517f08c379a0000000000000000000000000000000000000000000000000000000008152600401610db6906115a4565b60405180910390fd5b610dcb60008383611086565b8060026000828254610ddd9190611616565b92505081905550806000808473ffffffffffffffffffffffffffffffffffffffff1673ffffffffffffffffffffffffffffffffffffffff1681526020019081526020016000206000828254610e329190611616565b925050819055508173ffffffffffffffffffffffffffffffffffffffff16600073ffffffffffffffffffffffffffffffffffffffff167fddf252ad1be2c89b69c2b068fc378daa952ba7f163c4a11628f55a4df523b3ef83604051610e9791906115c4565b60405180910390a3610eab6000838361108b565b5050565b600073ffffffffffffffffffffffffffffffffffffffff168273ffffffffffffffffffffffffffffffffffffffff161415610f1f576040517f08c379a0000000000000000000000000000000000000000000000000000000008152600401610f1690611504565b60405180910390fd5b610f2b82600083611086565b60008060008473ffffffffffffffffffffffffffffffffffffffff1673ffffffffffffffffffffffffffffffffffffffff16815260200190815260200160002054905081811015610fb1576040517f08c379a0000000000000000000000000000000000000000000000000000000008152600401610fa890611464565b60405180910390fd5b8181036000808573ffffffffffffffffffffffffffffffffffffffff1673ffffffffffffffffffffffffffffffffffffffff168152602001908152602001600020819055508160026000828254611008919061166c565b92505081905550600073ffffffffffffffffffffffffffffffffffffffff168373ffffffffffffffffffffffffffffffffffffffff167fddf252ad1be2c89b69c2b068fc378daa952ba7f163c4a11628f55a4df523b3ef8460405161106d91906115c4565b60405180910390a36110818360008461108b565b505050565b505050565b505050565b60008135905061109f81611b57565b92915050565b6000813590506110b481611b6e565b92915050565b6000602082840312156110cc57600080fd5b60006110da84828501611090565b91505092915050565b600080604083850312156110f657600080fd5b600061110485828601611090565b925050602061111585828601611090565b9150509250929050565b60008060006060848603121561113457600080fd5b600061114286828701611090565b935050602061115386828701611090565b9250506040611164868287016110a5565b9150509250925092565b6000806040838503121561118157600080fd5b600061118f85828601611090565b92505060206111a0858286016110a5565b9150509250929050565b6000602082840312156111bc57600080fd5b60006111ca848285016110a5565b91505092915050565b6111dc816116a0565b82525050565b6111eb816116b2565b82525050565b60006111fc826115fa565b6112068185611605565b93506112168185602086016116f5565b61121f816117b8565b840191505092915050565b6000611237602383611605565b9150611242826117c9565b604082019050919050565b600061125a602283611605565b915061126582611818565b604082019050919050565b600061127d602283611605565b915061128882611867565b604082019050919050565b60006112a0602b83611605565b91506112ab826118b6565b604082019050919050565b60006112c3602683611605565b91506112ce82611905565b604082019050919050565b60006112e6602883611605565b91506112f182611954565b604082019050919050565b6000611309602183611605565b9150611314826119a3565b604082019050919050565b600061132c602583611605565b9150611337826119f2565b604082019050919050565b600061134f602483611605565b915061135a82611a41565b604082019050919050565b6000611372602583611605565b915061137d82611a90565b604082019050919050565b6000611395602583611605565b91506113a082611adf565b604082019050919050565b60006113b8601f83611605565b91506113c382611b2e565b602082019050919050565b6113d7816116de565b82525050565b6113e6816116e8565b82525050565b600060208201905061140160008301846111d3565b92915050565b600060208201905061141c60008301846111e2565b92915050565b6000602082019050818103600083015261143c81846111f1565b905092915050565b6000602082019050818103600083015261145d8161122a565b9050919050565b6000602082019050818103600083015261147d8161124d565b9050919050565b6000602082019050818103600083015261149d81611270565b9050919050565b600060208201905081810360008301526114bd81611293565b9050919050565b600060208201905081810360008301526114dd816112b6565b9050919050565b600060208201905081810360008301526114fd816112d9565b9050919050565b6000602082019050818103600083015261151d816112fc565b9050919050565b6000602082019050818103600083015261153d8161131f565b9050919050565b6000602082019050818103600083015261155d81611342565b9050919050565b6000602082019050818103600083015261157d81611365565b9050919050565b6000602082019050818103600083015261159d81611388565b9050919050565b600060208201905081810360008301526115bd816113ab565b9050919050565b60006020820190506115d960008301846113ce565b92915050565b60006020820190506115f460008301846113dd565b92915050565b600081519050919050565b600082825260208201905092915050565b6000611621826116de565b915061162c836116de565b9250827fffffffffffffffffffffffffffffffffffffffffffffffffffffffffffffffff038211156116615761166061175a565b5b828201905092915050565b6000611677826116de565b9150611682836116de565b9250828210156116955761169461175a565b5b828203905092915050565b60006116ab826116be565b9050919050565b60008115159050919050565b600073ffffffffffffffffffffffffffffffffffffffff82169050919050565b6000819050919050565b600060ff82169050919050565b60005b838110156117135780820151818401526020810190506116f8565b83811115611722576000848401525b50505050565b6000600282049050600182168061174057607f821691505b6020821081141561175457611753611789565b5b50919050565b7f4e487b7100000000000000000000000000000000000000000000000000000000600052601160045260246000fd5b7f4e487b7100000000000000000000000000000000000000000000000000000000600052602260045260246000fd5b6000601f19601f8301169050919050565b7f45524332303a207472616e7366657220746f20746865207a65726f206164647260008201527f6573730000000000000000000000000000000000000000000000000000000000602082015250565b7f45524332303a206275726e20616d6f756e7420657863656564732062616c616e60008201527f6365000000000000000000000000000000000000000000000000000000000000602082015250565b7f45524332303a20617070726f766520746f20746865207a65726f20616464726560008201527f7373000000000000000000000000000000000000000000000000000000000000602082015250565b7f4f6e6c792061646d696e20616c6c6f77656420746f204578656375746520746860008201527f69732066756e6374696f6e000000000000000000000000000000000000000000602082015250565b7f45524332303a207472616e7366657220616d6f756e742065786365656473206260008201527f616c616e63650000000000000000000000000000000000000000000000000000602082015250565b7f45524332303a207472616e7366657220616d6f756e742065786365656473206160008201527f6c6c6f77616e6365000000000000000000000000000000000000000000000000602082015250565b7f45524332303a206275726e2066726f6d20746865207a65726f2061646472657360008201527f7300000000000000000000000000000000000000000000000000000000000000602082015250565b7f45524332303a207472616e736665722066726f6d20746865207a65726f20616460008201527f6472657373000000000000000000000000000000000000000000000000000000602082015250565b7f45524332303a20617070726f76652066726f6d20746865207a65726f2061646460008201527f7265737300000000000000000000000000000000000000000000000000000000602082015250565b7f43616e206f6e6c79206d696e7420746f6b656e207570746f203130303031207460008201527f6f6b656e73000000000000000000000000000000000000000000000000000000602082015250565b7f45524332303a2064656372656173656420616c6c6f77616e63652062656c6f7760008201527f207a65726f000000000000000000000000000000000000000000000000000000602082015250565b7f45524332303a206d696e7420746f20746865207a65726f206164647265737300600082015250565b611b60816116a0565b8114611b6b57600080fd5b50565b611b77816116de565b8114611b8257600080fd5b5056fea2646970667358221220ae36ce084de5be8453c0b895c2c2d679ea6d8f5eb20d6844729763379612587e64736f6c63430008040033",
  "linkReferences": {},
  "deployedLinkReferences": {}
}